{
  "contractName": "BasitKiraSozlesmesi",
  "abi": [
    {
      "inputs": [],
      "stateMutability": "nonpayable",
      "type": "constructor"
    },
    {
      "inputs": [],
      "name": "evSahibi",
      "outputs": [
        {
          "internalType": "address payable",
          "name": "",
          "type": "address"
        }
      ],
      "stateMutability": "view",
      "type": "function"
    },
    {
      "inputs": [
        {
          "internalType": "uint256",
          "name": "",
          "type": "uint256"
        }
      ],
      "name": "kiraKayitlari",
      "outputs": [
        {
          "internalType": "address",
          "name": "kiraci",
          "type": "address"
        },
        {
          "internalType": "uint256",
          "name": "miktar",
          "type": "uint256"
        },
        {
          "internalType": "uint256",
          "name": "tarih",
          "type": "uint256"
        }
      ],
      "stateMutability": "view",
      "type": "function"
    },
    {
      "inputs": [],
      "name": "kiraOde",
      "outputs": [],
      "stateMutability": "payable",
      "type": "function"
    },
    {
      "inputs": [],
      "name": "getAllKiraKayitlari",
      "outputs": [
        {
          "components": [
            {
              "internalType": "address",
              "name": "kiraci",
              "type": "address"
            },
            {
              "internalType": "uint256",
              "name": "miktar",
              "type": "uint256"
            },
            {
              "internalType": "uint256",
              "name": "tarih",
              "type": "uint256"
            }
          ],
          "internalType": "struct BasitKiraSozlesmesi.KiraKaydi[]",
          "name": "",
          "type": "tuple[]"
        }
      ],
      "stateMutability": "view",
      "type": "function"
    }
  ],
  "bytecode": "0x608060405234801561000f575f80fd5b503360015f6101000a81548173ffffffffffffffffffffffffffffffffffffffff021916908373ffffffffffffffffffffffffffffffffffffffff1602179055506106668061005d5f395ff3fe60806040526004361061003e575f3560e01c806301058fbb146100425780636f9144181461004c578063eb42efce1461008a578063f2dcffe9146100b4575b5f80fd5b61004a6100de565b005b348015610057575f80fd5b50610072600480360381019061006d91906103ab565b610239565b60405161008193929190610424565b60405180910390f35b348015610095575f80fd5b5061009e61028c565b6040516100ab9190610479565b60405180910390f35b3480156100bf575f80fd5b506100c86102b1565b6040516100d59190610598565b60405180910390f35b5f3411610120576040517f08c379a000000000000000000000000000000000000000000000000000000000815260040161011790610612565b60405180910390fd5b5f60405180606001604052803373ffffffffffffffffffffffffffffffffffffffff16815260200134815260200142815250908060018154018082558091505060019003905f5260205f2090600302015f909190919091505f820151815f015f6101000a81548173ffffffffffffffffffffffffffffffffffffffff021916908373ffffffffffffffffffffffffffffffffffffffff1602179055506020820151816001015560408201518160020155505060015f9054906101000a900473ffffffffffffffffffffffffffffffffffffffff1673ffffffffffffffffffffffffffffffffffffffff166108fc3490811502906040515f60405180830381858888f19350505050158015610236573d5f803e3d5ffd5b50565b5f8181548110610247575f80fd5b905f5260205f2090600302015f91509050805f015f9054906101000a900473ffffffffffffffffffffffffffffffffffffffff16908060010154908060020154905083565b60015f9054906101000a900473ffffffffffffffffffffffffffffffffffffffff1681565b60605f805480602002602001604051908101604052809291908181526020015f905b8282101561036b578382905f5260205f2090600302016040518060600160405290815f82015f9054906101000a900473ffffffffffffffffffffffffffffffffffffffff1673ffffffffffffffffffffffffffffffffffffffff1673ffffffffffffffffffffffffffffffffffffffff16815260200160018201548152602001600282015481525050815260200190600101906102d3565b50505050905090565b5f80fd5b5f819050919050565b61038a81610378565b8114610394575f80fd5b50565b5f813590506103a581610381565b92915050565b5f602082840312156103c0576103bf610374565b5b5f6103cd84828501610397565b91505092915050565b5f73ffffffffffffffffffffffffffffffffffffffff82169050919050565b5f6103ff826103d6565b9050919050565b61040f816103f5565b82525050565b61041e81610378565b82525050565b5f6060820190506104375f830186610406565b6104446020830185610415565b6104516040830184610415565b949350505050565b5f610463826103d6565b9050919050565b61047381610459565b82525050565b5f60208201905061048c5f83018461046a565b92915050565b5f81519050919050565b5f82825260208201905092915050565b5f819050602082019050919050565b6104c4816103f5565b82525050565b6104d381610378565b82525050565b606082015f8201516104ed5f8501826104bb565b50602082015161050060208501826104ca565b50604082015161051360408501826104ca565b50505050565b5f61052483836104d9565b60608301905092915050565b5f602082019050919050565b5f61054682610492565b610550818561049c565b935061055b836104ac565b805f5b8381101561058b5781516105728882610519565b975061057d83610530565b92505060018101905061055e565b5085935050505092915050565b5f6020820190508181035f8301526105b0818461053c565b905092915050565b5f82825260208201905092915050565b7f4b6972612030206f6c616d617a000000000000000000000000000000000000005f82015250565b5f6105fc600d836105b8565b9150610607826105c8565b602082019050919050565b5f6020820190508181035f830152610629816105f0565b905091905056fea2646970667358221220fa82f9389776b9914f74aa852cfff6df0e17d62b0c53c5fe85a5d6d4a2f525df64736f6c63430008150033",
  "immutableReferences": {},
  "source": "// SPDX-License-Identifier: MIT\r\npragma solidity ^0.8.0;\r\n\r\ncontract BasitKiraSozlesmesi {\r\n    struct KiraKaydi {\r\n        address kiraci;\r\n        uint256 miktar;\r\n        uint256 tarih;\r\n    }\r\n    \r\n    KiraKaydi[] public kiraKayitlari;\r\n    address payable public evSahibi;\r\n\r\n    constructor() {\r\n        evSahibi = payable(msg.sender);\r\n    }\r\n\r\n    function kiraOde() external payable {\r\n        require(msg.value > 0, \"Kira 0 olamaz\");\r\n        \r\n        kiraKayitlari.push(KiraKaydi({\r\n            kiraci: msg.sender,\r\n            miktar: msg.value,\r\n            tarih: block.timestamp\r\n        }));\r\n        \r\n        evSahibi.transfer(msg.value);\r\n    }\r\n        \r\n    // Yeni eklenen fonksiyon\r\n    function getAllKiraKayitlari() external view returns (KiraKaydi[] memory) {\r\n        return kiraKayitlari;\r\n    }\r\n}",
  "sourcePath": "C:\\Users\\berri\\Desktop\\Bait\\contracts\\RentalAgreement.sol",
  "compiler": {
    "name": "solc",
    "version": "0.8.21+commit.d9974bed.Emscripten.clang"
  },
  "schemaVersion": "3.4.16",
  "updatedAt": "2025-05-22T15:54:26.688Z",
  "devdoc": {
    "kind": "dev",
    "methods": {},
    "version": 1
  },
  "userdoc": {
    "kind": "user",
    "methods": {},
    "version": 1
  }
}